:1000000012C02AC029C028C027C026C026C024C0CC
:1000100023C022C021C020C01FC01EC01DC083C17C
:1000200097C11AC019C011241FBECFEDCDBF10E07B
:10003000A0E6B0E0E6E3F4E002C005900D92A63938
:10004000B107D9F710E0A6E9B0E001C01D92A03CCD
:10005000B107E1F77CD0EDC1D3CF1F920F920FB65D
:100060000F9211248F939F9382E088BF8091BE00EE
:100070009091BF0001969093BF008093BE009F9126
:100080008F910F900FBE0F901F901895982F882377
:1000900029F08FB580628FBD98BD03C08FB58F7D6D
:1000A0008FBD662329F08FB580688FBD6ABD03C000
:1000B0008FB58F778FBD442329F080B7806880BFCC
:1000C00046BF089580B78F7780BF0895AC0130E0B8
:1000D00020E005C0E40FF51F8081280F3F5FE32F6C
:1000E000F0E0E617F707B4F3822F089587B38C6129
:1000F00087BB18BA8D9A959881B3807F81BB82B3F4
:100100008F6082BB85B78F7785BF80E886BD92E020
:1001100096BD80B7836880BF93BF99BF8FB5816A52
:100120008FBD8EB58A608EBD16BE1ABC18BC789481
:1001300008952091BE003091BF00280F391F809193
:10014000BE009091BF0082179307C9F70895EF9200
:10015000FF920F931F931092BF001092BE00C6DF54
:1001600080B38F70A2D001C0C4D0D4D08823E1F76F
:100170008FEF6FEF4FEF22E389DF2091BE003091C8
:10018000BF0028513C4F8091BE009091BF00821764
:100190009307C9F78FEF60E04FEF22E377DF959A7F
:1001A00087B3837E87BB87B38C6187BB2091BE00FA
:1001B0003091BF0028513C4F8091BE009091BF000C
:1001C00082179307C9F795988FEF60E040E022E32C
:1001D0005DDF8FEF60E040E022E358DF2091BE005A
:1001E0003091BF0028513C4F8091BE009091BF00DC
:1001F00082179307C9F780E06FEF40E022E346DF04
:100200002091BE003091BF0028513C4F8091BE002C
:100210009091BF0082179307C9F780E060E04FEF2D
:1002200022E334DF2091BE003091BF0028513C4FC3
:100230008091BE009091BF0082179307C9F780E0BC
:1002400060E040E022E322DF54D08F3AB9F451D08D
:10025000E82E4FD0F82E4DD0082F4BD0182F49D074
:1002600059D08823E1F7802F6E2D4F2D20E00EDF2F
:10027000112311F0959AE8CF9598E6CF8E3A21F7A1
:1002800001C037D047D08823E1F78E2D21D08F2DA4
:100290001FD0802F1DD0D8CF1092AB001092AA0093
:1002A0001092BD001092BC0008951092AB00109205
:1002B000AA001092BD001092BC0080939800C79ACB
:1002C000C59ABF9ABD9888EA8DB980EF8EB9089516
:1002D000282F9091BC009F5F9F708091BD00981760
:1002E000E1F3E92FF0E0E455FF4F20839093BC0049
:1002F00008959091AB008091AA008917E1F3E091F5
:10030000AB00EF5FEF70E093AB00F0E0E656FF4F1D
:10031000808108959091AB008091AA0020E089131C
:1003200021E0822F08951F920F920FB60F92112491
:100330008F938EB110929900BD9886B388EF8DB9D6
:1003400080EF8EB98F910F900FBE0F901F90189570
:100350001F920F920FB60F9211248F939F93EF93DA
:10036000FF93809199008230D9F1833030F4882353
:1003700061F0813009F054C018C08430B9F1843084
:1003800088F0853009F04CC037C08FB1882331F038
:100390008FB18695909198008917F9F4789B39C0B0
:1003A00081E038C08FB18823C1F49091BD00809165
:1003B000BC00891791F08091BD008F5F8F70809392
:1003C000BD00E091BD00F0E0E455FF4F80818FB9A2
:1003D00082E080939900BD9A0DC088EA8DB90AC069
:1003E00083E080939900BD981FB818C085E0809382
:1003F0009900BD9880E713C09FB18091AA008F5FDC
:100400008F708093AA00E091AA00F0E0E656FF4FBB
:10041000908384E0809399001FB8BD9A8EE78EB9CF
:10042000FF91EF919F918F910F900FBE0F901F90B2
:060430001895F894FFCFBF
:100436000F00000F00050F000A0F000F0A000F053E
:10044600000F00000F00050F000A0F000F0F000F2E
:100456000A000F05000F00050F000A0F000F0F001E
:060466000F0A000F050063
:00000001FF
